{
  "contractName": "Bitcoin",
  "abi": [
    {
      "inputs": [
        {
          "name": "ecrecoverContract",
          "type": "address"
        },
        {
          "name": "networkByte",
          "type": "bytes1"
        },
        {
          "name": "networkPrefixByte",
          "type": "bytes1"
        }
      ],
      "payable": false,
      "stateMutability": "nonpayable",
      "type": "constructor",
      "signature": "constructor"
    },
    {
      "anonymous": false,
      "inputs": [
        {
          "indexed": false,
          "name": "signature",
          "type": "bytes"
        },
        {
          "indexed": false,
          "name": "messageHash",
          "type": "bytes32"
        },
        {
          "indexed": false,
          "name": "witness",
          "type": "string"
        }
      ],
      "name": "RevealedSignature",
      "type": "event",
      "signature": "0xb3708ffcf80cbf1b87d3ff214e1f0ab84e6c2f3d70369a1da0105653efd12c02"
    },
    {
      "constant": true,
      "inputs": [
        {
          "name": "witness",
          "type": "string"
        },
        {
          "name": "messageHash",
          "type": "bytes32"
        }
      ],
      "name": "getSignature",
      "outputs": [
        {
          "name": "signature",
          "type": "bytes"
        }
      ],
      "payable": false,
      "stateMutability": "view",
      "type": "function",
      "signature": "0x6520fd73"
    },
    {
      "constant": false,
      "inputs": [
        {
          "name": "messageHash",
          "type": "bytes32"
        },
        {
          "name": "signature",
          "type": "bytes"
        }
      ],
      "name": "saveSignature",
      "outputs": [],
      "payable": false,
      "stateMutability": "nonpayable",
      "type": "function",
      "signature": "0xb7ed69b5"
    },
    {
      "constant": true,
      "inputs": [
        {
          "name": "number",
          "type": "uint256"
        }
      ],
      "name": "isEven",
      "outputs": [
        {
          "name": "",
          "type": "bool"
        }
      ],
      "payable": false,
      "stateMutability": "pure",
      "type": "function",
      "signature": "0x2a2e1320"
    },
    {
      "constant": true,
      "inputs": [
        {
          "name": "publicKey",
          "type": "bytes"
        }
      ],
      "name": "getBitcoinAddress",
      "outputs": [
        {
          "name": "bitcoinAddress",
          "type": "string"
        }
      ],
      "payable": false,
      "stateMutability": "view",
      "type": "function",
      "signature": "0x860c60a7"
    },
    {
      "constant": true,
      "inputs": [
        {
          "name": "source",
          "type": "bytes"
        }
      ],
      "name": "bytesToBase58",
      "outputs": [
        {
          "name": "",
          "type": "bytes"
        }
      ],
      "payable": false,
      "stateMutability": "pure",
      "type": "function",
      "signature": "0x00b3c159"
    }
  ],
  "bytecode": "0x608060405234801561001057600080fd5b5060405160608061172f8339810180604052606081101561003057600080fd5b8101908080519060200190929190805190602001909291908051906020019092919050505082600060026101000a81548173ffffffffffffffffffffffffffffffffffffffff021916908373ffffffffffffffffffffffffffffffffffffffff160217905550816000806101000a81548160ff02191690837f01000000000000000000000000000000000000000000000000000000000000009004021790555080600060016101000a81548160ff02191690837f0100000000000000000000000000000000000000000000000000000000000000900402179055505050506116128061011d6000396000f3fe60806040526004361061006c576000357c0100000000000000000000000000000000000000000000000000000000900463ffffffff168062b3c159146100715780632a2e1320146101b25780636520fd7314610205578063860c60a714610350578063b7ed69b514610491575b600080fd5b34801561007d57600080fd5b506101376004803603602081101561009457600080fd5b81019080803590602001906401000000008111156100b157600080fd5b8201836020820111156100c357600080fd5b803590602001918460018302840111640100000000831117156100e557600080fd5b91908080601f016020809104026020016040519081016040528093929190818152602001838380828437600081840152601f19601f820116905080830192505050505050509192919290505050610563565b6040518080602001828103825283818151815260200191508051906020019080838360005b8381101561017757808201518184015260208101905061015c565b50505050905090810190601f1680156101a45780820380516001836020036101000a031916815260200191505b509250505060405180910390f35b3480156101be57600080fd5b506101eb600480360360208110156101d557600080fd5b81019080803590602001909291905050506107b9565b604051808215151515815260200191505060405180910390f35b34801561021157600080fd5b506102d56004803603604081101561022857600080fd5b810190808035906020019064010000000081111561024557600080fd5b82018360208201111561025757600080fd5b8035906020019184600183028401116401000000008311171561027957600080fd5b91908080601f016020809104026020016040519081016040528093929190818152602001838380828437600081840152601f19601f820116905080830192505050505050509192919290803590602001909291905050506107d9565b6040518080602001828103825283818151815260200191508051906020019080838360005b838110156103155780820151818401526020810190506102fa565b50505050905090810190601f1680156103425780820380516001836020036101000a031916815260200191505b509250505060405180910390f35b34801561035c57600080fd5b506104166004803603602081101561037357600080fd5b810190808035906020019064010000000081111561039057600080fd5b8201836020820111156103a257600080fd5b803590602001918460018302840111640100000000831117156103c457600080fd5b91908080601f016020809104026020016040519081016040528093929190818152602001838380828437600081840152601f19601f8201169050808301925050505050505091929192905050506108f8565b6040518080602001828103825283818151815260200191508051906020019080838360005b8381101561045657808201518184015260208101905061043b565b50505050905090810190601f1680156104835780820380516001836020036101000a031916815260200191505b509250505060405180910390f35b34801561049d57600080fd5b50610561600480360360408110156104b457600080fd5b8101908080359060200190929190803590602001906401000000008111156104db57600080fd5b8201836020820111156104ed57600080fd5b8035906020019184600183028401116401000000008311171561050f57600080fd5b91908080601f016020809104026020016040519081016040528093929190818152602001838380828437600081840152601f19601f820116905080830192505050505050509192919290505050610efa565b005b60606000825114156105ab5760006040519080825280601f01601f1916602001820160405280156105a35781602001600182028038833980820191505090505b5090506107b4565b606060286040519080825280602002602001820160405280156105dd5781602001602082028038833980820191505090505b50905060008160008151811015156105f157fe5b9060200190602002019060ff16908160ff168152505060006001905060008090505b84518160ff161015610794576000858260ff1681518110151561063257fe5b9060200101517f010000000000000000000000000000000000000000000000000000000000000090047f0100000000000000000000000000000000000000000000000000000000000000027f0100000000000000000000000000000000000000000000000000000000000000900460ff16905060008090505b8360ff168160ff16101561072d57610100858260ff168151811015156106cd57fe5b9060200190602002015160ff160282019150603a828115156106eb57fe5b06858260ff168151811015156106fd57fe5b9060200190602002019060ff16908160ff1681525050603a8281151561071f57fe5b0491508060010190506106ab565b505b600081111561078857603a8181151561074457fe5b06848460ff1681518110151561075657fe5b9060200190602002019060ff16908160ff16815250508280600101935050603a8181151561078057fe5b04905061072f565b50806001019050610613565b506107af6107aa6107a584846110c8565b61116e565b611215565b925050505b919050565b6000806001831614156107cf57600190506107d4565b600090505b919050565b60606001836040518082805190602001908083835b60208310151561081357805182526020820191506020810190506020830392506107ee565b6001836020036101000a038019825116818451168082178552505050505050905001915050908152602001604051809103902060008381526020019081526020016000208054600181600116156101000203166002900480601f0160208091040260200160405190810160405280929190818152602001828054600181600116156101000203166002900480156108eb5780601f106108c0576101008083540402835291602001916108eb565b820191906000526020600020905b8154815290600101906020018083116108ce57829003601f168201915b5050505050905092915050565b6060600060036002846040516020018082805190602001908083835b6020831015156109395780518252602082019150602081019050602083039250610914565b6001836020036101000a0380198251168184511680821785525050505050509050019150506040516020818303038152906040526040518082805190602001908083835b6020831015156109a2578051825260208201915060208101905060208303925061097d565b6001836020036101000a038019825116818451168082178552505050505050905001915050602060405180830381855afa1580156109e4573d6000803e3d6000fd5b5050506040513d60208110156109f957600080fd5b8101908080519060200190929190505050604051602001808281526020019150506040516020818303038152906040526040518082805190602001908083835b602083101515610a5e5780518252602082019150602081019050602083039250610a39565b6001836020036101000a038019825116818451168082178552505050505050905001915050602060405180830381855afa158015610aa0573d6000803e3d6000fd5b505050604051516c0100000000000000000000000002905060006002806000809054906101000a90047f0100000000000000000000000000000000000000000000000000000000000000028460405160200180837effffffffffffffffffffffffffffffffffffffffffffffffffffffffffffff19167effffffffffffffffffffffffffffffffffffffffffffffffffffffffffffff19168152600101826bffffffffffffffffffffffff19166bffffffffffffffffffffffff19168152601401925050506040516020818303038152906040526040518082805190602001908083835b602083101515610ba95780518252602082019150602081019050602083039250610b84565b6001836020036101000a038019825116818451168082178552505050505050905001915050602060405180830381855afa158015610beb573d6000803e3d6000fd5b5050506040513d6020811015610c0057600080fd5b8101908080519060200190929190505050604051602001808281526020019150506040516020818303038152906040526040518082805190602001908083835b602083101515610c655780518252602082019150602081019050602083039250610c40565b6001836020036101000a038019825116818451168082178552505050505050905001915050602060405180830381855afa158015610ca7573d6000803e3d6000fd5b5050506040513d6020811015610cbc57600080fd5b8101908080519060200190929190505050905060007fffffffff000000000000000000000000000000000000000000000000000000006001028216905060606000809054906101000a90047f010000000000000000000000000000000000000000000000000000000000000002848360405160200180847effffffffffffffffffffffffffffffffffffffffffffffffffffffffffffff19167effffffffffffffffffffffffffffffffffffffffffffffffffffffffffffff19168152600101836bffffffffffffffffffffffff19166bffffffffffffffffffffffff19168152601401827bffffffffffffffffffffffffffffffffffffffffffffffffffffffff19167bffffffffffffffffffffffffffffffffffffffffffffffffffffffff19168152600401935050505060405160208183030381529060405290506060610e0582610563565b9050600060019054906101000a90047f0100000000000000000000000000000000000000000000000000000000000000028160405160200180837effffffffffffffffffffffffffffffffffffffffffffffffffffffffffffff19167effffffffffffffffffffffffffffffffffffffffffffffffffffffffffffff1916815260010182805190602001908083835b602083101515610eb95780518252602082019150602081019050602083039250610e94565b6001836020036101000a0380198251168184511680821785525050505050509050019250505060405160208183030381529060405295505050505050919050565b6060610f06838361138b565b90506000610f1482856107d9565b51141515610f2157600080fd5b816001826040518082805190602001908083835b602083101515610f5a5780518252602082019150602081019050602083039250610f35565b6001836020036101000a038019825116818451168082178552505050505050905001915050908152602001604051809103902060008581526020019081526020016000209080519060200190610fb1929190611541565b507fb3708ffcf80cbf1b87d3ff214e1f0ab84e6c2f3d70369a1da0105653efd12c02828483604051808060200184815260200180602001838103835286818151815260200191508051906020019080838360005b83811015611020578082015181840152602081019050611005565b50505050905090810190601f16801561104d5780820380516001836020036101000a031916815260200191505b50838103825284818151815260200191508051906020019080838360005b8381101561108657808201518184015260208101905061106b565b50505050905090810190601f1680156110b35780820380516001836020036101000a031916815260200191505b509550505050505060405180910390a1505050565b6060808260ff166040519080825280602002602001820160405280156110fd5781602001602082028038833980820191505090505b50905060008090505b8360ff168160ff16101561116357848160ff1681518110151561112557fe5b90602001906020020151828260ff1681518110151561114057fe5b9060200190602002019060ff16908160ff16815250508080600101915050611106565b508091505092915050565b60608082516040519080825280602002602001820160405280156111a15781602001602082028038833980820191505090505b50905060008090505b83518160ff16101561120b57838160ff166001865103038151811015156111cd57fe5b90602001906020020151828260ff168151811015156111e857fe5b9060200190602002019060ff16908160ff168152505080806001019150506111aa565b5080915050919050565b60608082516040519080825280601f01601f19166020018201604052801561124c5781602001600182028038833980820191505090505b50905060008090505b83518160ff16101561138157606060405190810160405280603a81526020017f31323334353637383941424344454647484a4b4c4d4e5051525354555657585981526020017f5a6162636465666768696a6b6d6e6f707172737475767778797a000000000000815250848260ff168151811015156112cf57fe5b9060200190602002015160ff168151811015156112e857fe5b9060200101517f010000000000000000000000000000000000000000000000000000000000000090047f010000000000000000000000000000000000000000000000000000000000000002828260ff1681518110151561134457fe5b9060200101907effffffffffffffffffffffffffffffffffffffffffffffffffffffffffffff1916908160001a9053508080600101915050611255565b5080915050919050565b60608061139884846113b2565b905060606113a5826108f8565b9050809250505092915050565b60606000806113c18585611448565b9150915060006113d482600190046107b9565b156113e257600290506113e7565b600390505b60608184604051602001808360ff1660ff167f01000000000000000000000000000000000000000000000000000000000000000281526001018281526020019250505060405160208183030381529060405290508094505050505092915050565b60008060008060029054906101000a900473ffffffffffffffffffffffffffffffffffffffff169050600060405180807f65637265636f7665722875696e743235362c75696e743235362c75696e74323581526020017f362c75696e743235362900000000000000000000000000000000000000000000815250602a0190506040518091039020905060208501516040860151606087015160001a60405184815289600482015281602482015283604482015282606482015260405160808160848460008b6107d05a03f1151561151e57600080fd5b604081015198506060810151975060848201604052505050505050509250929050565b828054600181600116156101000203166002900490600052602060002090601f016020900481019282601f1061158257805160ff19168380011785556115b0565b828001600101855582156115b0579182015b828111156115af578251825591602001919060010190611594565b5b5090506115bd91906115c1565b5090565b6115e391905b808211156115df5760008160009055506001016115c7565b5090565b9056fea165627a7a723058200c850730b6cd11b4398961a0e7a06c9fc2dbf9c6d66da83f13fb53364dceec060029",
  "source": "pragma solidity ^0.5.0;\n\ncontract Bitcoin {\n    bytes32 constant private mask4 = 0xffffffff00000000000000000000000000000000000000000000000000000000;\n    bytes constant private ALPHABET = '123456789ABCDEFGHJKLMNPQRSTUVWXYZabcdefghijkmnopqrstuvwxyz';\n    bytes1 private network;\n    bytes1 private networkPrefix;\n\n    address private recoverPublicKey;\n\n    mapping (string => mapping(bytes32 => bytes)) private signatures;\n\n    event RevealedSignature(bytes signature, bytes32 messageHash, string witness);\n\n    constructor(address ecrecoverContract, bytes1 networkByte, bytes1 networkPrefixByte) public {\n        recoverPublicKey = ecrecoverContract;\n        network = networkByte;\n        networkPrefix = networkPrefixByte;\n    }\n\n    function getSignature(string memory witness, bytes32 messageHash)\n        public view returns (bytes memory signature)\n    {\n        signature = signatures[witness][messageHash];\n    }\n\n    function saveSignature(\n        bytes32 messageHash,\n        bytes memory signature\n    )\n        public\n    {\n        string memory bitcoinAddress = recoverBitcoinAddress(messageHash, signature);\n\n        require(getSignature(bitcoinAddress, messageHash).length == 0);\n\n        signatures[bitcoinAddress][messageHash] = signature;\n\n        emit RevealedSignature(signature, messageHash, bitcoinAddress);\n    }\n\n    function recoverBitcoinAddress(bytes32 hash, bytes memory signature)\n        internal returns (string memory)\n    {\n        bytes memory compressedPublicKey = recoverCompressedPublicKey(hash, signature);\n\n        string memory bitcoinAddress = getBitcoinAddress(compressedPublicKey);\n\n        return bitcoinAddress;\n    }\n\n    function recoverCompressedPublicKey(bytes32 hash, bytes memory signature)\n        internal returns (bytes memory)\n    {\n        (bytes32 publicKeyX, bytes32 publicKeyY) = recoverPublicKeyCoordinates(hash, signature);\n\n        uint8 publicKeyPrefix;\n\n        if (isEven(uint256(publicKeyY))) {\n            publicKeyPrefix = 2;\n        } else {\n            publicKeyPrefix = 3;\n        }\n\n        bytes memory compressedPublicKey = abi.encodePacked(publicKeyPrefix, publicKeyX);\n\n        return compressedPublicKey;\n    }\n\n    function recoverPublicKeyCoordinates(bytes32 hash, bytes memory signature)\n        internal returns (bytes32 publicKeyX, bytes32 publicKeyY)\n    {\n        address recoverPublicKeyAddress = recoverPublicKey;\n        bytes4 recoverPublicKeySignature = bytes4(keccak256(\"ecrecover(uint256,uint256,uint256,uint256)\"));\n\n        assembly {\n            let r := mload(add(signature, 0x20))\n            let s := mload(add(signature, 0x40))\n            let v := byte(0, mload(add(signature, 0x60)))\n\n            let recoverInput := mload(0x40)\n\n            mstore(recoverInput, recoverPublicKeySignature)\n\n            mstore(add(recoverInput, 0x04), hash)\n\n            mstore(add(recoverInput, 0x24), v)\n\n            mstore(add(recoverInput, 0x44), r)\n\n            mstore(add(recoverInput, 0x64), s)\n\n            let recoveredPublicKey := mload(0x40)\n\n            if iszero(call(sub(gas, 2000), recoverPublicKeyAddress, 0, recoverInput, 0x84, recoveredPublicKey, 0x80)) {\n                revert(0, 0)\n            }\n\n            publicKeyX := mload(add(recoveredPublicKey, 0x40))\n            publicKeyY := mload(add(recoveredPublicKey, 0x60))\n\n            mstore(0x40, add(recoverInput, 0x84))\n        }\n    }\n\n    function isEven(uint256 number)\n        public pure returns (bool)\n    {\n        if (number & 1 == 0) {\n            return true;\n        } else {\n            return false;\n        }\n    }\n\n    function getBitcoinAddress(bytes memory publicKey) public view returns (string memory bitcoinAddress) {\n        bytes20 publicKeyHash = ripemd160(abi.encodePacked(sha256(abi.encodePacked(publicKey))));\n\n        bytes32 checksumFull = sha256(abi.encodePacked(sha256(abi.encodePacked(network, publicKeyHash))));\n\n        bytes4 checksumSliced = bytes4(checksumFull&mask4);\n\n        bytes memory addressBytecode = abi.encodePacked(network, publicKeyHash, checksumSliced);\n\n        bytes memory bitcoinAddressBase58 = bytesToBase58(addressBytecode);\n\n        bitcoinAddress = string(abi.encodePacked(networkPrefix, bitcoinAddressBase58));\n    }\n\n    function bytesToBase58(bytes memory source)\n        public pure returns (bytes memory)\n    {\n        if (source.length == 0) return new bytes(0);\n\n        uint8[] memory digits = new uint8[](40);\n        digits[0] = 0;\n\n        uint8 digitlength = 1;\n\n        for (uint8 i = 0; i < source.length; ++i) {\n            uint carry = uint8(source[i]);\n\n            for (uint8 j = 0; j < digitlength; ++j) {\n                carry += uint(digits[j]) * 256;\n                digits[j] = uint8(carry % 58);\n                carry = carry / 58;\n            }\n\n            while (carry > 0) {\n                digits[digitlength] = uint8(carry % 58);\n                digitlength++;\n                carry = carry / 58;\n            }\n        }\n\n        return toAlphabet(reverse(truncate(digits, digitlength)));\n    }\n\n    function truncate(uint8[] memory array, uint8 length)\n        internal pure returns (uint8[] memory)\n    {\n        uint8[] memory output = new uint8[](length);\n\n        for (uint8 i = 0; i<length; i++) {\n            output[i] = array[i];\n        }\n\n        return output;\n    }\n\n    function reverse(uint8[] memory input)\n        internal pure returns (uint8[] memory)\n    {\n        uint8[] memory output = new uint8[](input.length);\n\n        for (uint8 i = 0; i<input.length; i++) {\n            output[i] = input[input.length-1-i];\n        }\n\n        return output;\n    }\n\n    function toAlphabet(uint8[] memory indices)\n        internal pure returns (bytes memory)\n    {\n        bytes memory output = new bytes(indices.length);\n\n        for (uint8 i = 0; i<indices.length; i++) {\n            output[i] = ALPHABET[indices[i]];\n        }\n\n        return output;\n    }\n}\n",
  "sourcePath": "/home/sevenflash/apps/diadem-protocol/contracts/Bitcoin.sol",
  "compiler": {
    "name": "solc",
    "version": "0.5.0+commit.1d4f565a.Emscripten.clang"
  },
  "schemaVersion": "3.0.0",
  "updatedAt": "2019-01-09T11:44:50.589Z",
  "devdoc": {
    "methods": {}
  },
  "userdoc": {
    "methods": {}
  }
}