{
  "contractName": "Diadem",
  "abi": [
    {
      "inputs": [
        {
          "name": "messagesContract",
          "type": "address"
        },
        {
          "name": "ethereumContract",
          "type": "address"
        },
        {
          "name": "bitcoinContract",
          "type": "address"
        }
      ],
      "payable": false,
      "stateMutability": "nonpayable",
      "type": "constructor",
      "signature": "constructor"
    },
    {
      "anonymous": false,
      "inputs": [
        {
          "indexed": false,
          "name": "messageHash",
          "type": "bytes32"
        },
        {
          "indexed": false,
          "name": "previousMessageHash",
          "type": "bytes32"
        }
      ],
      "name": "Create",
      "type": "event",
      "signature": "0x0d2297cec1ae03481ad18bf4f056374d7da4ae00ce43627b64659002125cccf0"
    },
    {
      "anonymous": false,
      "inputs": [
        {
          "indexed": false,
          "name": "link",
          "type": "string"
        },
        {
          "indexed": false,
          "name": "newTitle",
          "type": "string"
        }
      ],
      "name": "UpdateTitle",
      "type": "event",
      "signature": "0x95cc0ae12bd9a5e87d3df5b8c102cef2b31bab9d9fd267387a974eb1a9924b61"
    },
    {
      "anonymous": false,
      "inputs": [
        {
          "indexed": false,
          "name": "owner",
          "type": "address"
        },
        {
          "indexed": false,
          "name": "link",
          "type": "string"
        },
        {
          "indexed": false,
          "name": "witness",
          "type": "address"
        }
      ],
      "name": "Confirm",
      "type": "event",
      "signature": "0x44cd04f736ad09845a66019a358898aacdd64afdc1e497dea7cc83f6d81036df"
    },
    {
      "constant": true,
      "inputs": [
        {
          "name": "owner",
          "type": "address"
        },
        {
          "name": "link",
          "type": "string"
        }
      ],
      "name": "getHash",
      "outputs": [
        {
          "name": "",
          "type": "bytes32"
        }
      ],
      "payable": false,
      "stateMutability": "view",
      "type": "function",
      "signature": "0x6b2c61c1"
    },
    {
      "constant": true,
      "inputs": [
        {
          "name": "owner",
          "type": "address"
        }
      ],
      "name": "getAchievementsChain",
      "outputs": [
        {
          "name": "",
          "type": "bytes32[]"
        }
      ],
      "payable": false,
      "stateMutability": "view",
      "type": "function",
      "signature": "0xaaf93ac1"
    },
    {
      "constant": true,
      "inputs": [
        {
          "name": "messageHash",
          "type": "bytes32"
        }
      ],
      "name": "getAchievementByHash",
      "outputs": [
        {
          "components": [
            {
              "name": "owner",
              "type": "address"
            },
            {
              "name": "title",
              "type": "string"
            },
            {
              "name": "link",
              "type": "string"
            },
            {
              "name": "exists",
              "type": "bool"
            }
          ],
          "name": "",
          "type": "tuple"
        }
      ],
      "payable": false,
      "stateMutability": "view",
      "type": "function",
      "signature": "0x6b48eb03"
    },
    {
      "constant": true,
      "inputs": [
        {
          "name": "owner",
          "type": "address"
        },
        {
          "name": "link",
          "type": "string"
        }
      ],
      "name": "getAchievement",
      "outputs": [
        {
          "components": [
            {
              "name": "owner",
              "type": "address"
            },
            {
              "name": "title",
              "type": "string"
            },
            {
              "name": "link",
              "type": "string"
            },
            {
              "name": "exists",
              "type": "bool"
            }
          ],
          "name": "",
          "type": "tuple"
        }
      ],
      "payable": false,
      "stateMutability": "view",
      "type": "function",
      "signature": "0xab722ce8"
    },
    {
      "constant": false,
      "inputs": [
        {
          "name": "link",
          "type": "string"
        },
        {
          "name": "newTitle",
          "type": "string"
        }
      ],
      "name": "updateTitle",
      "outputs": [],
      "payable": false,
      "stateMutability": "nonpayable",
      "type": "function",
      "signature": "0xad308907"
    },
    {
      "constant": false,
      "inputs": [
        {
          "name": "link",
          "type": "string"
        },
        {
          "name": "title",
          "type": "string"
        }
      ],
      "name": "create",
      "outputs": [],
      "payable": false,
      "stateMutability": "nonpayable",
      "type": "function",
      "signature": "0x198e2b8a"
    },
    {
      "constant": false,
      "inputs": [
        {
          "name": "owner",
          "type": "address"
        },
        {
          "name": "link",
          "type": "string"
        },
        {
          "name": "witness",
          "type": "address"
        },
        {
          "name": "signature",
          "type": "bytes"
        }
      ],
      "name": "confirm",
      "outputs": [],
      "payable": false,
      "stateMutability": "nonpayable",
      "type": "function",
      "signature": "0x01021beb"
    }
  ],
  "bytecode": "0x60806040523480156200001157600080fd5b5060405160608062001749833981018060405262000033919081019062000114565b826000806101000a81548173ffffffffffffffffffffffffffffffffffffffff021916908373ffffffffffffffffffffffffffffffffffffffff16021790555081600160006101000a81548173ffffffffffffffffffffffffffffffffffffffff021916908373ffffffffffffffffffffffffffffffffffffffff16021790555080600260006101000a81548173ffffffffffffffffffffffffffffffffffffffff021916908373ffffffffffffffffffffffffffffffffffffffff1602179055505050506200019e565b60006200010c82516200018a565b905092915050565b6000806000606084860312156200012a57600080fd5b60006200013a86828701620000fe565b93505060206200014d86828701620000fe565b92505060406200016086828701620000fe565b9150509250925092565b600073ffffffffffffffffffffffffffffffffffffffff82169050919050565b600062000197826200016a565b9050919050565b61159b80620001ae6000396000f3fe608060405260043610610083576000357c0100000000000000000000000000000000000000000000000000000000900463ffffffff16806301021beb14610088578063198e2b8a146100b15780636b2c61c1146100da5780636b48eb0314610117578063aaf93ac114610154578063ab722ce814610191578063ad308907146101ce575b600080fd5b34801561009457600080fd5b506100af60048036036100aa9190810190610e83565b6101f7565b005b3480156100bd57600080fd5b506100d860048036036100d39190810190610f68565b6103d3565b005b3480156100e657600080fd5b5061010160048036036100fc9190810190610e2f565b610703565b60405161010e91906112bc565b60405180910390f35b34801561012357600080fd5b5061013e60048036036101399190810190610f16565b6107d7565b60405161014b91906113ab565b60405180910390f35b34801561016057600080fd5b5061017b60048036036101769190810190610e06565b6109ba565b604051610188919061129a565b60405180910390f35b34801561019d57600080fd5b506101b860048036036101b39190810190610e2f565b610a51565b6040516101c591906113ab565b60405180910390f35b3480156101da57600080fd5b506101f560048036036101f09190810190610f68565b610a79565b005b60006102038585610703565b9050600115156003600083815260200190815260200160002060030160009054906101000a900460ff16151514151561023b57600080fd5b600160009054906101000a900473ffffffffffffffffffffffffffffffffffffffff1673ffffffffffffffffffffffffffffffffffffffff1663b7ed69b582846040518363ffffffff167c01000000000000000000000000000000000000000000000000000000000281526004016102b4929190611300565b600060405180830381600087803b1580156102ce57600080fd5b505af11580156102e2573d6000803e3d6000fd5b50505050600260009054906101000a900473ffffffffffffffffffffffffffffffffffffffff1673ffffffffffffffffffffffffffffffffffffffff1663b7ed69b582846040518363ffffffff167c010000000000000000000000000000000000000000000000000000000002815260040161035f929190611300565b600060405180830381600087803b15801561037957600080fd5b505af115801561038d573d6000803e3d6000fd5b505050507f44cd04f736ad09845a66019a358898aacdd64afdc1e497dea7cc83f6d81036df8585856040516103c49392919061125c565b60405180910390a15050505050565b600033905060008060009054906101000a900473ffffffffffffffffffffffffffffffffffffffff1673ffffffffffffffffffffffffffffffffffffffff16637d0f22a183866040518363ffffffff167c010000000000000000000000000000000000000000000000000000000002815260040161045292919061122c565b602060405180830381600087803b15801561046c57600080fd5b505af1158015610480573d6000803e3d6000fd5b505050506040513d601f19601f820116820180604052506104a49190810190610f3f565b905060008060010290506000600460008573ffffffffffffffffffffffffffffffffffffffff1673ffffffffffffffffffffffffffffffffffffffff168152602001908152602001600020805490509050600081111561055b57600460008573ffffffffffffffffffffffffffffffffffffffff1673ffffffffffffffffffffffffffffffffffffffff1681526020019081526020016000206001820381548110151561054d57fe5b906000526020600020015491505b610563610bb8565b6080604051908101604052808673ffffffffffffffffffffffffffffffffffffffff168152602001878152602001888152602001600115158152509050806003600086815260200190815260200160002060008201518160000160006101000a81548173ffffffffffffffffffffffffffffffffffffffff021916908373ffffffffffffffffffffffffffffffffffffffff1602179055506020820151816001019080519060200190610617929190610bf9565b506040820151816002019080519060200190610634929190610bf9565b5060608201518160030160006101000a81548160ff021916908315150217905550905050600460008673ffffffffffffffffffffffffffffffffffffffff1673ffffffffffffffffffffffffffffffffffffffff1681526020019081526020016000208490806001815401808255809150509060018203906000526020600020016000909192909190915055507f0d2297cec1ae03481ad18bf4f056374d7da4ae00ce43627b64659002125cccf084846040516106f29291906112d7565b60405180910390a150505050505050565b60008060009054906101000a900473ffffffffffffffffffffffffffffffffffffffff1673ffffffffffffffffffffffffffffffffffffffff1663e45dae5b3085856040518463ffffffff167c010000000000000000000000000000000000000000000000000000000002815260040161077f939291906111ee565b60206040518083038186803b15801561079757600080fd5b505afa1580156107ab573d6000803e3d6000fd5b505050506040513d601f19601f820116820180604052506107cf9190810190610f3f565b905092915050565b6107df610bb8565b60036000838152602001908152602001600020608060405190810160405290816000820160009054906101000a900473ffffffffffffffffffffffffffffffffffffffff1673ffffffffffffffffffffffffffffffffffffffff1673ffffffffffffffffffffffffffffffffffffffff168152602001600182018054600181600116156101000203166002900480601f0160208091040260200160405190810160405280929190818152602001828054600181600116156101000203166002900480156108ed5780601f106108c2576101008083540402835291602001916108ed565b820191906000526020600020905b8154815290600101906020018083116108d057829003601f168201915b50505050508152602001600282018054600181600116156101000203166002900480601f01602080910402602001604051908101604052809291908181526020018280546001816001161561010002031660029004801561098f5780601f106109645761010080835404028352916020019161098f565b820191906000526020600020905b81548152906001019060200180831161097257829003601f168201915b505050505081526020016003820160009054906101000a900460ff1615151515815250509050919050565b6060600460008373ffffffffffffffffffffffffffffffffffffffff1673ffffffffffffffffffffffffffffffffffffffff168152602001908152602001600020805480602002602001604051908101604052809291908181526020018280548015610a4557602002820191906000526020600020905b815481526020019060010190808311610a31575b50505050509050919050565b610a59610bb8565b6000610a658484610703565b9050610a70816107d7565b91505092915050565b60003390506000610a8a8285610703565b905060006003600083815260200190815260200160002090508273ffffffffffffffffffffffffffffffffffffffff168160000160009054906101000a900473ffffffffffffffffffffffffffffffffffffffff1673ffffffffffffffffffffffffffffffffffffffff16141515610b0157600080fd5b83604051602001610b129190611330565b6040516020818303038152906040528051906020012081600101604051602001610b3c9190611389565b6040516020818303038152906040528051906020012014151515610b5f57600080fd5b83816001019080519060200190610b77929190610c79565b507f95cc0ae12bd9a5e87d3df5b8c102cef2b31bab9d9fd267387a974eb1a9924b618585604051610ba9929190611352565b60405180910390a15050505050565b608060405190810160405280600073ffffffffffffffffffffffffffffffffffffffff16815260200160608152602001606081526020016000151581525090565b828054600181600116156101000203166002900490600052602060002090601f016020900481019282601f10610c3a57805160ff1916838001178555610c68565b82800160010185558215610c68579182015b82811115610c67578251825591602001919060010190610c4c565b5b509050610c759190610cf9565b5090565b828054600181600116156101000203166002900490600052602060002090601f016020900481019282601f10610cba57805160ff1916838001178555610ce8565b82800160010185558215610ce8579182015b82811115610ce7578251825591602001919060010190610ccc565b5b509050610cf59190610cf9565b5090565b610d1b91905b80821115610d17576000816000905550600101610cff565b5090565b90565b6000610d2a82356114f2565b905092915050565b6000610d3e8235611504565b905092915050565b6000610d528251611504565b905092915050565b600082601f8301121515610d6d57600080fd5b8135610d80610d7b826113fa565b6113cd565b91508082526020830160208301858383011115610d9c57600080fd5b610da783828461150e565b50505092915050565b600082601f8301121515610dc357600080fd5b8135610dd6610dd182611426565b6113cd565b91508082526020830160208301858383011115610df257600080fd5b610dfd83828461150e565b50505092915050565b600060208284031215610e1857600080fd5b6000610e2684828501610d1e565b91505092915050565b60008060408385031215610e4257600080fd5b6000610e5085828601610d1e565b925050602083013567ffffffffffffffff811115610e6d57600080fd5b610e7985828601610db0565b9150509250929050565b60008060008060808587031215610e9957600080fd5b6000610ea787828801610d1e565b945050602085013567ffffffffffffffff811115610ec457600080fd5b610ed087828801610db0565b9350506040610ee187828801610d1e565b925050606085013567ffffffffffffffff811115610efe57600080fd5b610f0a87828801610d5a565b91505092959194509250565b600060208284031215610f2857600080fd5b6000610f3684828501610d32565b91505092915050565b600060208284031215610f5157600080fd5b6000610f5f84828501610d46565b91505092915050565b60008060408385031215610f7b57600080fd5b600083013567ffffffffffffffff811115610f9557600080fd5b610fa185828601610db0565b925050602083013567ffffffffffffffff811115610fbe57600080fd5b610fca85828601610db0565b9150509250929050565b610fdd816114aa565b82525050565b6000610fee82611471565b80845260208401935061100083611452565b60005b828110156110325761101686835161104d565b61101f8261149d565b9150602086019550600181019050611003565b50849250505092915050565b611047816114bc565b82525050565b611056816114c8565b82525050565b60006110678261147c565b80845261107b81602086016020860161151d565b61108481611550565b602085010191505092915050565b600061109d82611492565b8084526110b181602086016020860161151d565b6110ba81611550565b602085010191505092915050565b60006110d382611487565b8084526110e781602086016020860161151d565b6110f081611550565b602085010191505092915050565b60008154600181166000811461111b576001811461113b5761117c565b607f600283041680865260ff19831660208701526040860193505061117c565b600282048086526020860195506111518561145f565b60005b8281101561117357815481890152600182019150602081019050611154565b80880195505050505b505092915050565b600060808301600083015161119c6000860182610fd4565b50602083015184820360208601526111b482826110c8565b915050604083015184820360408601526111ce82826110c8565b91505060608301516111e3606086018261103e565b508091505092915050565b60006060820190506112036000830186610fd4565b6112106020830185610fd4565b81810360408301526112228184611092565b9050949350505050565b60006040820190506112416000830185610fd4565b81810360208301526112538184611092565b90509392505050565b60006060820190506112716000830186610fd4565b81810360208301526112838185611092565b90506112926040830184610fd4565b949350505050565b600060208201905081810360008301526112b48184610fe3565b905092915050565b60006020820190506112d1600083018461104d565b92915050565b60006040820190506112ec600083018561104d565b6112f9602083018461104d565b9392505050565b6000604082019050611315600083018561104d565b8181036020830152611327818461105c565b90509392505050565b6000602082019050818103600083015261134a8184611092565b905092915050565b6000604082019050818103600083015261136c8185611092565b905081810360208301526113808184611092565b90509392505050565b600060208201905081810360008301526113a381846110fe565b905092915050565b600060208201905081810360008301526113c58184611184565b905092915050565b6000604051905081810181811067ffffffffffffffff821117156113f057600080fd5b8060405250919050565b600067ffffffffffffffff82111561141157600080fd5b601f19601f8301169050602081019050919050565b600067ffffffffffffffff82111561143d57600080fd5b601f19601f8301169050602081019050919050565b6000602082019050919050565b60008160005260206000209050919050565b600081519050919050565b600081519050919050565b600081519050919050565b600081519050919050565b6000602082019050919050565b60006114b5826114d2565b9050919050565b60008115159050919050565b6000819050919050565b600073ffffffffffffffffffffffffffffffffffffffff82169050919050565b60006114fd826114d2565b9050919050565b6000819050919050565b82818337600083830152505050565b60005b8381101561153b578082015181840152602081019050611520565b8381111561154a576000848401525b50505050565b6000601f19601f830116905091905056fea265627a7a723058206713dc13d19e908b4f2fc5887d6a5add7b0114da72f05bd7e1e4c3a26b39aa8c6c6578706572696d656e74616cf50037",
  "source": "pragma solidity ^0.5.0;\npragma experimental ABIEncoderV2;\n\nimport \"./Messages.sol\";\nimport \"./Ethereum.sol\";\nimport \"./Bitcoin.sol\";\n\ncontract Diadem {\n    Messages messages;\n    Ethereum ethereum;\n    Bitcoin bitcoin;\n\n    struct Achievement {\n        address owner;\n        string title;\n        string link;\n        bool exists;\n    }\n\n    mapping (bytes32 => Achievement) achievements;\n    mapping (address => bytes32[]) chains;\n\n    constructor(\n        address messagesContract,\n        address ethereumContract,\n        address bitcoinContract\n    ) public {\n        messages = Messages(messagesContract);\n        ethereum = Ethereum(ethereumContract);\n        bitcoin = Bitcoin(bitcoinContract);\n    }\n\n    function getHash(address owner, string memory link)\n        public view returns (bytes32)\n    {\n        return messages.getMessageHash(address(this), owner, link);\n    }\n\n    function getAchievementsChain(address owner)\n        public view returns(bytes32[] memory)\n    {\n        return chains[owner];\n    }\n\n    function getAchievementByHash(bytes32 messageHash)\n        public view returns(Achievement memory)\n    {\n        return achievements[messageHash];\n    }\n\n    function getAchievement(address owner, string memory link)\n        public view returns(Achievement memory)\n    {\n        bytes32 messageHash = getHash(owner, link);\n        return getAchievementByHash(messageHash);\n    }\n\n    function updateTitle(string memory link, string memory newTitle)\n        public\n    {\n        address owner = msg.sender;\n\n        bytes32 messageHash = getHash(owner, link);\n\n        Achievement storage achievement = achievements[messageHash];\n\n        require(achievement.owner == owner);\n\n        require(keccak256(abi.encode(achievement.title)) != keccak256(abi.encode(newTitle)));\n\n        achievement.title = newTitle;\n\n        emit UpdateTitle(link, newTitle);\n    }\n\n    function create(string memory link, string memory title)\n        public\n    {\n        address owner = msg.sender;\n\n        bytes32 messageHash = messages.saveMessage(owner, link);\n\n        bytes32 previousMessageHash = bytes32(0);\n\n        uint256 achievementsChainLength = chains[owner].length;\n\n        if (achievementsChainLength > 0) {\n            previousMessageHash = chains[owner][achievementsChainLength - 1];\n        }\n\n        Achievement memory achievement = Achievement(owner, title, link, true);\n\n        achievements[messageHash] = achievement;\n\n        chains[owner].push(messageHash);\n\n        emit Create(messageHash, previousMessageHash);\n    }\n\n    function confirm(address owner, string memory link, address witness, bytes memory signature)\n        public\n    {\n        bytes32 messageHash = getHash(owner, link);\n\n        require(achievements[messageHash].exists == true);\n\n        ethereum.saveSignature(messageHash, signature);\n        bitcoin.saveSignature(messageHash, signature);\n\n        emit Confirm(owner, link, witness);\n    }\n\n    event Create(bytes32 messageHash, bytes32 previousMessageHash);\n    event UpdateTitle(string link, string newTitle);\n    event Confirm(address owner, string link, address witness);\n}\n",
  "sourcePath": "/home/sevenflash/apps/diadem-protocol/contracts/Diadem.sol",
  "compiler": {
    "name": "solc",
    "version": "0.5.0+commit.1d4f565a.Emscripten.clang"
  },
  "schemaVersion": "3.0.0",
  "updatedAt": "2019-01-09T11:44:50.577Z",
  "devdoc": {
    "methods": {}
  },
  "userdoc": {
    "methods": {}
  }
}