{
  "contractName": "Escrow",
  "abi": [
    {
      "anonymous": false,
      "inputs": [
        {
          "indexed": false,
          "name": "depositHash",
          "type": "bytes32"
        }
      ],
      "name": "NewDeposit",
      "type": "event",
      "signature": "0x7e2eeb260c562f6ea9e5ba45565049c1d661a33cb1a864c5ede045633a8a7ff4"
    },
    {
      "anonymous": false,
      "inputs": [
        {
          "indexed": false,
          "name": "from",
          "type": "address"
        },
        {
          "indexed": false,
          "name": "beneficiary",
          "type": "address"
        },
        {
          "indexed": false,
          "name": "amount",
          "type": "uint256"
        },
        {
          "indexed": false,
          "name": "messageHash",
          "type": "bytes32"
        }
      ],
      "name": "WithdrawnDeposit",
      "type": "event",
      "signature": "0xdd9aa292c02b29922aedf747e27d90e0fd44decb4ea0792ebf71f09f98141285"
    },
    {
      "anonymous": false,
      "inputs": [
        {
          "indexed": false,
          "name": "recipient",
          "type": "address"
        },
        {
          "indexed": false,
          "name": "amount",
          "type": "uint256"
        },
        {
          "indexed": false,
          "name": "messageHash",
          "type": "bytes32"
        }
      ],
      "name": "RefundedDeposit",
      "type": "event",
      "signature": "0xb4a846977821d4eca5ec80bcac79032b6135452e9f4c213bb7dddfd526209f52"
    },
    {
      "constant": true,
      "inputs": [
        {
          "name": "from",
          "type": "address"
        },
        {
          "name": "messageHash",
          "type": "bytes32"
        },
        {
          "name": "beneficiary",
          "type": "address"
        },
        {
          "name": "witness",
          "type": "address"
        },
        {
          "name": "expirationTime",
          "type": "uint256"
        }
      ],
      "name": "getDepositHash",
      "outputs": [
        {
          "name": "",
          "type": "bytes32"
        }
      ],
      "payable": false,
      "stateMutability": "pure",
      "type": "function",
      "signature": "0x7ebaa555"
    },
    {
      "constant": true,
      "inputs": [
        {
          "name": "messageHash",
          "type": "bytes32"
        },
        {
          "name": "witness",
          "type": "address"
        }
      ],
      "name": "getDeposits",
      "outputs": [
        {
          "name": "",
          "type": "bytes32[]"
        }
      ],
      "payable": false,
      "stateMutability": "view",
      "type": "function",
      "signature": "0x40a93fe6"
    },
    {
      "constant": true,
      "inputs": [
        {
          "name": "depositHash",
          "type": "bytes32"
        }
      ],
      "name": "getDeposit",
      "outputs": [
        {
          "components": [
            {
              "name": "from",
              "type": "address"
            },
            {
              "name": "messageHash",
              "type": "bytes32"
            },
            {
              "name": "beneficiary",
              "type": "address"
            },
            {
              "name": "witness",
              "type": "address"
            },
            {
              "name": "expirationTime",
              "type": "uint256"
            },
            {
              "name": "beneficiaryAmount",
              "type": "uint256"
            },
            {
              "name": "witnessFee",
              "type": "uint256"
            },
            {
              "name": "relayerFee",
              "type": "uint256"
            },
            {
              "name": "exists",
              "type": "bool"
            }
          ],
          "name": "",
          "type": "tuple"
        }
      ],
      "payable": false,
      "stateMutability": "view",
      "type": "function",
      "signature": "0x7a86983f"
    },
    {
      "constant": false,
      "inputs": [
        {
          "name": "messageHash",
          "type": "bytes32"
        },
        {
          "name": "beneficiary",
          "type": "address"
        },
        {
          "name": "witness",
          "type": "address"
        },
        {
          "name": "expirationTime",
          "type": "uint256"
        },
        {
          "name": "witnessFee",
          "type": "uint256"
        },
        {
          "name": "relayerFee",
          "type": "uint256"
        }
      ],
      "name": "deposit",
      "outputs": [],
      "payable": true,
      "stateMutability": "payable",
      "type": "function",
      "signature": "0xb707d860"
    },
    {
      "constant": false,
      "inputs": [
        {
          "name": "depositHash",
          "type": "bytes32"
        },
        {
          "name": "signature",
          "type": "bytes"
        }
      ],
      "name": "release",
      "outputs": [],
      "payable": false,
      "stateMutability": "nonpayable",
      "type": "function",
      "signature": "0x1bc8a466"
    },
    {
      "constant": false,
      "inputs": [
        {
          "name": "depositHash",
          "type": "bytes32"
        }
      ],
      "name": "refund",
      "outputs": [],
      "payable": false,
      "stateMutability": "nonpayable",
      "type": "function",
      "signature": "0x7249fbb6"
    },
    {
      "constant": false,
      "inputs": [
        {
          "name": "depositHash",
          "type": "bytes32"
        }
      ],
      "name": "addWitnessFee",
      "outputs": [],
      "payable": true,
      "stateMutability": "payable",
      "type": "function",
      "signature": "0x579f6eff"
    },
    {
      "constant": false,
      "inputs": [
        {
          "name": "depositHash",
          "type": "bytes32"
        }
      ],
      "name": "addRelayerFee",
      "outputs": [],
      "payable": true,
      "stateMutability": "payable",
      "type": "function",
      "signature": "0x747a093c"
    }
  ],
  "bytecode": "0x608060405234801561001057600080fd5b506118de806100206000396000f3fe60806040526004361061008e576000357c0100000000000000000000000000000000000000000000000000000000900463ffffffff1680631bc8a4661461009357806340a93fe6146100bc578063579f6eff146100f95780637249fbb614610115578063747a093c1461013e5780637a86983f1461015a5780637ebaa55514610197578063b707d860146101d4575b600080fd5b34801561009f57600080fd5b506100ba60048036036100b59190810190611535565b6101f0565b005b3480156100c857600080fd5b506100e360048036036100de9190810190611470565b6106d2565b6040516100f09190611766565b60405180910390f35b610113600480360361010e9190810190611447565b61077b565b005b34801561012157600080fd5b5061013c60048036036101379190810190611447565b6107a1565b005b61015860048036036101539190810190611447565b610ba6565b005b34801561016657600080fd5b50610181600480360361017c9190810190611447565b610bcc565b60405161018e91906117a3565b60405180910390f35b3480156101a357600080fd5b506101be60048036036101b991908101906113d0565b610d49565b6040516101cb9190611788565b60405180910390f35b6101ee60048036036101e991908101906114ac565b610e4e565b005b60003390506101fd6112a0565b60008086815260200190815260200160002061012060405190810160405290816000820160009054906101000a900473ffffffffffffffffffffffffffffffffffffffff1673ffffffffffffffffffffffffffffffffffffffff1673ffffffffffffffffffffffffffffffffffffffff168152602001600182015481526020016002820160009054906101000a900473ffffffffffffffffffffffffffffffffffffffff1673ffffffffffffffffffffffffffffffffffffffff1673ffffffffffffffffffffffffffffffffffffffff1681526020016003820160009054906101000a900473ffffffffffffffffffffffffffffffffffffffff1673ffffffffffffffffffffffffffffffffffffffff1673ffffffffffffffffffffffffffffffffffffffff168152602001600482015481526020016005820154815260200160068201548152602001600782015481526020016008820160009054906101000a900460ff161515151581525050905060011515816101000151151514151561038557600080fd5b806060015173ffffffffffffffffffffffffffffffffffffffff166103f2826020015186868080601f016020809104026020016040519081016040528093929190818152602001838380828437600081840152601f19601f820116905080830192505050505050506111bc565b73ffffffffffffffffffffffffffffffffffffffff1614151561041457600080fd5b80608001514210151561042657600080fd5b600060026000878152602001908152602001600020549050600060016000846020015181526020019081526020016000206000846060015173ffffffffffffffffffffffffffffffffffffffff1673ffffffffffffffffffffffffffffffffffffffff168152602001908152602001600020905080828154811015156104a857fe5b9060005260206000200160009055600080888152602001908152602001600020600080820160006101000a81549073ffffffffffffffffffffffffffffffffffffffff021916905560018201600090556002820160006101000a81549073ffffffffffffffffffffffffffffffffffffffff02191690556003820160006101000a81549073ffffffffffffffffffffffffffffffffffffffff021916905560048201600090556005820160009055600682016000905560078201600090556008820160006101000a81549060ff021916905550506002600088815260200190815260200160002060009055826040015173ffffffffffffffffffffffffffffffffffffffff166108fc8460a001519081150290604051600060405180830381858888f193505050501580156105e1573d6000803e3d6000fd5b50826060015173ffffffffffffffffffffffffffffffffffffffff166108fc8460c001519081150290604051600060405180830381858888f19350505050158015610630573d6000803e3d6000fd5b508373ffffffffffffffffffffffffffffffffffffffff166108fc8460e001519081150290604051600060405180830381858888f1935050505015801561067b573d6000803e3d6000fd5b507fdd9aa292c02b29922aedf747e27d90e0fd44decb4ea0792ebf71f09f98141285836000015184604001518560a0015186602001516040516106c194939291906116ea565b60405180910390a150505050505050565b60606001600084815260200190815260200160002060008373ffffffffffffffffffffffffffffffffffffffff1673ffffffffffffffffffffffffffffffffffffffff16815260200190815260200160002080548060200260200160405190810160405280929190818152602001828054801561076e57602002820191906000526020600020905b81548152602001906001019080831161075a575b5050505050905092915050565b346000808381526020019081526020016000206006016000828254019250508190555050565b60003390506107ae6112a0565b60008084815260200190815260200160002061012060405190810160405290816000820160009054906101000a900473ffffffffffffffffffffffffffffffffffffffff1673ffffffffffffffffffffffffffffffffffffffff1673ffffffffffffffffffffffffffffffffffffffff168152602001600182015481526020016002820160009054906101000a900473ffffffffffffffffffffffffffffffffffffffff1673ffffffffffffffffffffffffffffffffffffffff1673ffffffffffffffffffffffffffffffffffffffff1681526020016003820160009054906101000a900473ffffffffffffffffffffffffffffffffffffffff1673ffffffffffffffffffffffffffffffffffffffff1673ffffffffffffffffffffffffffffffffffffffff168152602001600482015481526020016005820154815260200160068201548152602001600782015481526020016008820160009054906101000a900460ff161515151581525050905060011515816101000151151514151561093657600080fd5b8060800151421015151561094957600080fd5b600060026000858152602001908152602001600020549050600060016000846020015181526020019081526020016000206000846060015173ffffffffffffffffffffffffffffffffffffffff1673ffffffffffffffffffffffffffffffffffffffff1681526020019081526020016000209050600080868152602001908152602001600020600080820160006101000a81549073ffffffffffffffffffffffffffffffffffffffff021916905560018201600090556002820160006101000a81549073ffffffffffffffffffffffffffffffffffffffff02191690556003820160006101000a81549073ffffffffffffffffffffffffffffffffffffffff021916905560048201600090556005820160009055600682016000905560078201600090556008820160006101000a81549060ff0219169055505060026000868152602001908152602001600020600090558082815481101515610aa857fe5b906000526020600020016000905560008360c001518460a00151019050836000015173ffffffffffffffffffffffffffffffffffffffff166108fc829081150290604051600060405180830381858888f19350505050158015610b0f573d6000803e3d6000fd5b508473ffffffffffffffffffffffffffffffffffffffff166108fc8560e001519081150290604051600060405180830381858888f19350505050158015610b5a573d6000803e3d6000fd5b507fb4a846977821d4eca5ec80bcac79032b6135452e9f4c213bb7dddfd526209f528460000151828660200151604051610b969392919061172f565b60405180910390a1505050505050565b346000808381526020019081526020016000206007016000828254019250508190555050565b610bd46112a0565b60008083815260200190815260200160002061012060405190810160405290816000820160009054906101000a900473ffffffffffffffffffffffffffffffffffffffff1673ffffffffffffffffffffffffffffffffffffffff1673ffffffffffffffffffffffffffffffffffffffff168152602001600182015481526020016002820160009054906101000a900473ffffffffffffffffffffffffffffffffffffffff1673ffffffffffffffffffffffffffffffffffffffff1673ffffffffffffffffffffffffffffffffffffffff1681526020016003820160009054906101000a900473ffffffffffffffffffffffffffffffffffffffff1673ffffffffffffffffffffffffffffffffffffffff1673ffffffffffffffffffffffffffffffffffffffff168152602001600482015481526020016005820154815260200160068201548152602001600782015481526020016008820160009054906101000a900460ff1615151515815250509050919050565b60008585858585604051602001808673ffffffffffffffffffffffffffffffffffffffff1673ffffffffffffffffffffffffffffffffffffffff166c010000000000000000000000000281526014018581526020018473ffffffffffffffffffffffffffffffffffffffff1673ffffffffffffffffffffffffffffffffffffffff166c010000000000000000000000000281526014018373ffffffffffffffffffffffffffffffffffffffff1673ffffffffffffffffffffffffffffffffffffffff166c010000000000000000000000000281526014018281526020019550505050505060405160208183030381529060405280519060200120905095945050505050565b60003390506000349050600081118015610e69575082840181115b1515610e7457600080fd5b6000838583030390506000610e8c848b8b8b8b610d49565b90506000151560008083815260200190815260200160002060080160009054906101000a900460ff161515141515610ec357600080fd5b610ecb6112a0565b610120604051908101604052808673ffffffffffffffffffffffffffffffffffffffff1681526020018c81526020018b73ffffffffffffffffffffffffffffffffffffffff1681526020018a73ffffffffffffffffffffffffffffffffffffffff1681526020018981526020018481526020018881526020018781526020016001151581525090508060008084815260200190815260200160002060008201518160000160006101000a81548173ffffffffffffffffffffffffffffffffffffffff021916908373ffffffffffffffffffffffffffffffffffffffff1602179055506020820151816001015560408201518160020160006101000a81548173ffffffffffffffffffffffffffffffffffffffff021916908373ffffffffffffffffffffffffffffffffffffffff16021790555060608201518160030160006101000a81548173ffffffffffffffffffffffffffffffffffffffff021916908373ffffffffffffffffffffffffffffffffffffffff1602179055506080820151816004015560a0820151816005015560c0820151816006015560e082015181600701556101008201518160080160006101000a81548160ff021916908315150217905550905050600160008c815260200190815260200160002060008a73ffffffffffffffffffffffffffffffffffffffff1673ffffffffffffffffffffffffffffffffffffffff16815260200190815260200160002082908060018154018082558091505090600182039060005260206000200160009091929091909150555060018060008d815260200190815260200160002060008b73ffffffffffffffffffffffffffffffffffffffff1673ffffffffffffffffffffffffffffffffffffffff168152602001908152602001600020805490500360026000848152602001908152602001600020819055507f7e2eeb260c562f6ea9e5ba45565049c1d661a33cb1a864c5ede045633a8a7ff4826040516111a79190611788565b60405180910390a15050505050505050505050565b600080600080604185511415156111d9576000935050505061129a565b6020850151925060408501519150606085015160001a9050601b8160ff16101561120457601b810190505b601b8160ff161415801561121c5750601c8160ff1614155b1561122d576000935050505061129a565b60018682858560405160008152602001604052604051808581526020018460ff1660ff1681526020018381526020018281526020019450505050506020604051602081039080840390855afa15801561128a573d6000803e3d6000fd5b5050506020604051035193505050505b92915050565b61012060405190810160405280600073ffffffffffffffffffffffffffffffffffffffff16815260200160008019168152602001600073ffffffffffffffffffffffffffffffffffffffff168152602001600073ffffffffffffffffffffffffffffffffffffffff168152602001600081526020016000815260200160008152602001600081526020016000151581525090565b60006113408235611836565b905092915050565b60006113548235611848565b905092915050565b6000611368823561185a565b905092915050565b60008083601f840112151561138457600080fd5b8235905067ffffffffffffffff81111561139d57600080fd5b6020830191508360018202830111156113b557600080fd5b9250929050565b60006113c88235611864565b905092915050565b600080600080600060a086880312156113e857600080fd5b60006113f688828901611334565b95505060206114078882890161135c565b945050604061141888828901611334565b935050606061142988828901611334565b925050608061143a888289016113bc565b9150509295509295909350565b60006020828403121561145957600080fd5b60006114678482850161135c565b91505092915050565b6000806040838503121561148357600080fd5b60006114918582860161135c565b92505060206114a285828601611334565b9150509250929050565b60008060008060008060c087890312156114c557600080fd5b60006114d389828a0161135c565b96505060206114e489828a01611348565b95505060406114f589828a01611348565b945050606061150689828a016113bc565b935050608061151789828a016113bc565b92505060a061152889828a016113bc565b9150509295509295509295565b60008060006040848603121561154a57600080fd5b60006115588682870161135c565b935050602084013567ffffffffffffffff81111561157557600080fd5b61158186828701611370565b92509250509250925092565b6115968161186e565b82525050565b6115a5816117e4565b82525050565b60006115b6826117cc565b8084526020840193506115c8836117bf565b60005b828110156115fa576115de868351611615565b6115e7826117d7565b91506020860195506001810190506115cb565b50849250505092915050565b61160f816117f6565b82525050565b61161e81611802565b82525050565b6101208201600082015161163b600085018261159c565b50602082015161164e6020850182611615565b506040820151611661604085018261159c565b506060820151611674606085018261159c565b50608082015161168760808501826116db565b5060a082015161169a60a08501826116db565b5060c08201516116ad60c08501826116db565b5060e08201516116c060e08501826116db565b506101008201516116d5610100850182611606565b50505050565b6116e48161182c565b82525050565b60006080820190506116ff600083018761158d565b61170c602083018661158d565b61171960408301856116db565b6117266060830184611615565b95945050505050565b6000606082019050611744600083018661158d565b61175160208301856116db565b61175e6040830184611615565b949350505050565b6000602082019050818103600083015261178081846115ab565b905092915050565b600060208201905061179d6000830184611615565b92915050565b6000610120820190506117b96000830184611624565b92915050565b6000602082019050919050565b600081519050919050565b6000602082019050919050565b60006117ef8261180c565b9050919050565b60008115159050919050565b6000819050919050565b600073ffffffffffffffffffffffffffffffffffffffff82169050919050565b6000819050919050565b60006118418261180c565b9050919050565b60006118538261180c565b9050919050565b6000819050919050565b6000819050919050565b600061187982611880565b9050919050565b600061188b82611892565b9050919050565b600061189d8261180c565b905091905056fea265627a7a72305820822a6cd6478a96f62513ae810f6d8a8831a546065a7065ff79f54976bd136e0e6c6578706572696d656e74616cf50037",
  "source": "pragma solidity ^0.5.0;\npragma experimental ABIEncoderV2;\n\ncontract Escrow {\n    struct Deposit {\n        address payable from;\n        bytes32 messageHash;\n        address payable beneficiary;\n        address payable witness;\n        uint256 expirationTime;\n        uint256 beneficiaryAmount;\n        uint256 witnessFee;\n        uint256 relayerFee;\n        bool exists;\n    }\n\n    mapping (bytes32 => Deposit) deposits;\n    mapping (bytes32 => mapping(address => bytes32[])) depositLists;\n    mapping (bytes32 => uint256) depositIndexes;\n\n    function getDepositHash(\n        address from,\n        bytes32 messageHash,\n        address beneficiary,\n        address witness,\n        uint256 expirationTime\n    )\n        public pure returns (bytes32)\n    {\n        return keccak256(abi.encodePacked(from, messageHash, beneficiary, witness, expirationTime));\n    }\n\n    function getDeposits(\n        bytes32 messageHash, address witness\n    )\n        public view returns (bytes32[] memory)\n    {\n        return depositLists[messageHash][witness];\n    }\n\n    function getDeposit(\n        bytes32 depositHash\n    )\n        public view returns (Deposit memory)\n    {\n        return deposits[depositHash];\n    }\n\n    function deposit(\n        bytes32 messageHash,\n        address payable beneficiary,\n        address payable witness,\n        uint256 expirationTime,\n        uint256 witnessFee,\n        uint256 relayerFee\n    )\n        external payable\n    {\n        address payable from = msg.sender;\n        uint256 value = msg.value;\n\n        require(value > 0 && value > witnessFee + relayerFee);\n\n        uint256 beneficiaryAmount = value - witnessFee - relayerFee;\n\n        bytes32 depositHash = getDepositHash(from, messageHash, beneficiary, witness, expirationTime);\n\n        require(deposits[depositHash].exists == false);\n\n        Deposit memory newDeposit = Deposit(\n            from, messageHash, beneficiary, witness, expirationTime, beneficiaryAmount, witnessFee, relayerFee, true\n        );\n\n        deposits[depositHash] = newDeposit;\n        depositLists[messageHash][witness].push(depositHash);\n        depositIndexes[depositHash] = depositLists[messageHash][witness].length - 1;\n\n        emit NewDeposit(depositHash);\n    }\n\n    function release(bytes32 depositHash, bytes calldata signature)\n        external\n    {\n        address payable relayer = msg.sender;\n\n        Deposit memory currentDeposit = deposits[depositHash];\n\n        require(currentDeposit.exists == true);\n        require(recover(currentDeposit.messageHash, signature) == currentDeposit.witness);\n        require(now < currentDeposit.expirationTime);\n\n        uint256 depositIndex = depositIndexes[depositHash];\n\n        bytes32[] storage list = depositLists[currentDeposit.messageHash][currentDeposit.witness];\n\n        delete list[depositIndex];\n        delete deposits[depositHash];\n        delete depositIndexes[depositHash];\n\n        currentDeposit.beneficiary.transfer(currentDeposit.beneficiaryAmount);\n        currentDeposit.witness.transfer(currentDeposit.witnessFee);\n        relayer.transfer(currentDeposit.relayerFee);\n\n        emit WithdrawnDeposit(currentDeposit.from, currentDeposit.beneficiary, currentDeposit.beneficiaryAmount, currentDeposit.messageHash);\n    }\n\n    function refund(bytes32 depositHash)\n        external\n    {\n        address payable relayer = msg.sender;\n\n        Deposit memory currentDeposit = deposits[depositHash];\n\n        require(currentDeposit.exists == true);\n        require(now >= currentDeposit.expirationTime);\n\n        uint256 depositIndex = depositIndexes[depositHash];\n\n        bytes32[] storage list = depositLists[currentDeposit.messageHash][currentDeposit.witness];\n\n        delete deposits[depositHash];\n        delete depositIndexes[depositHash];\n        delete list[depositIndex];\n\n        uint256 refundAmount = currentDeposit.beneficiaryAmount + currentDeposit.witnessFee;\n\n        currentDeposit.from.transfer(refundAmount);\n        relayer.transfer(currentDeposit.relayerFee);\n\n        emit RefundedDeposit(currentDeposit.from, refundAmount, currentDeposit.messageHash);\n    }\n\n    function addWitnessFee(bytes32 depositHash)\n        public payable\n    {\n        deposits[depositHash].witnessFee += msg.value;\n    }\n\n    function addRelayerFee(bytes32 depositHash)\n        public payable\n    {\n        deposits[depositHash].relayerFee += msg.value;\n    }\n\n    function recover(bytes32 hash, bytes memory signature) internal pure returns (address) {\n        bytes32 r;\n        bytes32 s;\n        uint8 v;\n\n        if (signature.length != 65) {\n            return (address(0));\n        }\n\n        assembly {\n            r := mload(add(signature, 0x20))\n            s := mload(add(signature, 0x40))\n            v := byte(0, mload(add(signature, 0x60)))\n        }\n\n        if (v < 27) {\n            v += 27;\n        }\n\n        if (v != 27 && v != 28) {\n            return (address(0));\n        } else {\n            return ecrecover(hash, v, r, s);\n        }\n    }\n\n    event NewDeposit(bytes32 depositHash);\n    event WithdrawnDeposit(address from, address beneficiary, uint256 amount, bytes32 messageHash);\n    event RefundedDeposit(address recipient, uint256 amount, bytes32 messageHash);\n\n\n}\n",
  "sourcePath": "/home/sevenflash/apps/diadem-protocol/contracts/Escrow.sol",
  "compiler": {
    "name": "solc",
    "version": "0.5.0+commit.1d4f565a.Emscripten.clang"
  },
  "schemaVersion": "3.0.0",
  "updatedAt": "2019-01-09T11:44:54.674Z",
  "devdoc": {
    "methods": {}
  },
  "userdoc": {
    "methods": {}
  }
}