{
  "contractName": "Ethereum",
  "abi": [
    {
      "anonymous": false,
      "inputs": [
        {
          "indexed": false,
          "name": "signature",
          "type": "bytes"
        },
        {
          "indexed": false,
          "name": "messageHash",
          "type": "bytes32"
        },
        {
          "indexed": false,
          "name": "witness",
          "type": "address"
        }
      ],
      "name": "RevealedSignature",
      "type": "event",
      "signature": "0xbdab39f8ff87c31018b34acfc2b292d2a62d1f8de2532722f52c6536dea4d464"
    },
    {
      "constant": true,
      "inputs": [
        {
          "name": "witness",
          "type": "address"
        },
        {
          "name": "messageHash",
          "type": "bytes32"
        }
      ],
      "name": "getSignature",
      "outputs": [
        {
          "name": "signature",
          "type": "bytes"
        }
      ],
      "payable": false,
      "stateMutability": "view",
      "type": "function",
      "signature": "0x0f49bdd8"
    },
    {
      "constant": true,
      "inputs": [
        {
          "name": "signature",
          "type": "bytes"
        },
        {
          "name": "messageHash",
          "type": "bytes32"
        },
        {
          "name": "witness",
          "type": "address"
        }
      ],
      "name": "isValidSignature",
      "outputs": [
        {
          "name": "",
          "type": "bool"
        }
      ],
      "payable": false,
      "stateMutability": "pure",
      "type": "function",
      "signature": "0x1f9feaf8"
    },
    {
      "constant": false,
      "inputs": [
        {
          "name": "messageHash",
          "type": "bytes32"
        },
        {
          "name": "signature",
          "type": "bytes"
        }
      ],
      "name": "saveSignature",
      "outputs": [],
      "payable": false,
      "stateMutability": "nonpayable",
      "type": "function",
      "signature": "0xb7ed69b5"
    }
  ],
  "bytecode": "0x608060405234801561001057600080fd5b50610757806100206000396000f3fe608060405260043610610057576000357c0100000000000000000000000000000000000000000000000000000000900463ffffffff1680630f49bdd81461005c5780631f9feaf814610130578063b7ed69b51461023a575b600080fd5b34801561006857600080fd5b506100b56004803603604081101561007f57600080fd5b81019080803573ffffffffffffffffffffffffffffffffffffffff1690602001909291908035906020019092919050505061030c565b6040518080602001828103825283818151815260200191508051906020019080838360005b838110156100f55780820151818401526020810190506100da565b50505050905090810190601f1680156101225780820380516001836020036101000a031916815260200191505b509250505060405180910390f35b34801561013c57600080fd5b506102206004803603606081101561015357600080fd5b810190808035906020019064010000000081111561017057600080fd5b82018360208201111561018257600080fd5b803590602001918460018302840111640100000000831117156101a457600080fd5b91908080601f016020809104026020016040519081016040528093929190818152602001838380828437600081840152601f19601f82011690508083019250505050505050919291929080359060200190929190803573ffffffffffffffffffffffffffffffffffffffff1690602001909291905050506103fe565b604051808215151515815260200191505060405180910390f35b34801561024657600080fd5b5061030a6004803603604081101561025d57600080fd5b81019080803590602001909291908035906020019064010000000081111561028457600080fd5b82018360208201111561029657600080fd5b803590602001918460018302840111640100000000831117156102b857600080fd5b91908080601f016020809104026020016040519081016040528093929190818152602001838380828437600081840152601f19601f820116905080830192505050505050509192919290505050610453565b005b60606000808473ffffffffffffffffffffffffffffffffffffffff1673ffffffffffffffffffffffffffffffffffffffff16815260200190815260200160002060008381526020019081526020016000208054600181600116156101000203166002900480601f0160208091040260200160405190810160405280929190818152602001828054600181600116156101000203166002900480156103f15780601f106103c6576101008083540402835291602001916103f1565b820191906000526020600020905b8154815290600101906020018083116103d457829003601f168201915b5050505050905092915050565b60008173ffffffffffffffffffffffffffffffffffffffff1661042184866105a2565b73ffffffffffffffffffffffffffffffffffffffff16141515610447576000905061044c565b600190505b9392505050565b600061045f83836105a2565b9050816000808373ffffffffffffffffffffffffffffffffffffffff1673ffffffffffffffffffffffffffffffffffffffff168152602001908152602001600020600085815260200190815260200160002090805190602001906104c4929190610686565b507fbdab39f8ff87c31018b34acfc2b292d2a62d1f8de2532722f52c6536dea4d46482848360405180806020018481526020018373ffffffffffffffffffffffffffffffffffffffff1673ffffffffffffffffffffffffffffffffffffffff168152602001828103825285818151815260200191508051906020019080838360005b83811015610561578082015181840152602081019050610546565b50505050905090810190601f16801561058e5780820380516001836020036101000a031916815260200191505b5094505050505060405180910390a1505050565b600080600080604185511415156105bf5760009350505050610680565b6020850151925060408501519150606085015160001a9050601b8160ff1610156105ea57601b810190505b601b8160ff16141580156106025750601c8160ff1614155b156106135760009350505050610680565b60018682858560405160008152602001604052604051808581526020018460ff1660ff1681526020018381526020018281526020019450505050506020604051602081039080840390855afa158015610670573d6000803e3d6000fd5b5050506020604051035193505050505b92915050565b828054600181600116156101000203166002900490600052602060002090601f016020900481019282601f106106c757805160ff19168380011785556106f5565b828001600101855582156106f5579182015b828111156106f45782518255916020019190600101906106d9565b5b5090506107029190610706565b5090565b61072891905b8082111561072457600081600090555060010161070c565b5090565b9056fea165627a7a72305820b975ebafcd1d6a6f4ea23f8fc07a0c3058780415360c6e6f44eb38041bac443f0029",
  "source": "pragma solidity ^0.5.0;\n\ncontract Ethereum {\n    mapping (address => mapping(bytes32 => bytes)) signatures;\n\n    function recover(bytes32 hash, bytes memory signature) internal pure returns (address) {\n        bytes32 r;\n        bytes32 s;\n        uint8 v;\n\n        if (signature.length != 65) {\n            return (address(0));\n        }\n\n        assembly {\n            r := mload(add(signature, 0x20))\n            s := mload(add(signature, 0x40))\n            v := byte(0, mload(add(signature, 0x60)))\n        }\n\n        if (v < 27) {\n            v += 27;\n        }\n\n        if (v != 27 && v != 28) {\n            return (address(0));\n        } else {\n            return ecrecover(hash, v, r, s);\n        }\n    }\n\n    function getSignature(address witness, bytes32 messageHash)\n        public view returns (bytes memory signature)\n    {\n        signature = signatures[witness][messageHash];\n    }\n\n    function isValidSignature(bytes memory signature, bytes32 messageHash, address witness)\n        public pure returns (bool)\n    {\n        if (recover(messageHash, signature) != witness)\n            return false;\n\n        return true;\n    }\n\n    function saveSignature(bytes32 messageHash, bytes memory signature)\n        public\n    {\n        address witness = recover(messageHash, signature);\n\n        signatures[witness][messageHash] = signature;\n\n        emit RevealedSignature(signature, messageHash, witness);\n    }\n\n    event RevealedSignature(bytes signature, bytes32 messageHash, address witness);\n}\n",
  "sourcePath": "/home/sevenflash/apps/diadem-protocol/contracts/Ethereum.sol",
  "compiler": {
    "name": "solc",
    "version": "0.5.0+commit.1d4f565a.Emscripten.clang"
  },
  "schemaVersion": "3.0.0",
  "updatedAt": "2019-01-09T11:44:50.567Z",
  "devdoc": {
    "methods": {}
  },
  "userdoc": {
    "methods": {}
  }
}