{
  "contractName": "Messages",
  "abi": [
    {
      "constant": true,
      "inputs": [
        {
          "name": "creator",
          "type": "address"
        },
        {
          "name": "owner",
          "type": "address"
        },
        {
          "name": "item",
          "type": "string"
        }
      ],
      "name": "getMessageHash",
      "outputs": [
        {
          "name": "",
          "type": "bytes32"
        }
      ],
      "payable": false,
      "stateMutability": "pure",
      "type": "function",
      "signature": "0xe45dae5b"
    },
    {
      "constant": true,
      "inputs": [
        {
          "name": "messageHash",
          "type": "bytes32"
        }
      ],
      "name": "getMessage",
      "outputs": [
        {
          "components": [
            {
              "name": "creator",
              "type": "address"
            },
            {
              "name": "owner",
              "type": "address"
            },
            {
              "name": "item",
              "type": "string"
            },
            {
              "name": "exists",
              "type": "bool"
            }
          ],
          "name": "",
          "type": "tuple"
        }
      ],
      "payable": false,
      "stateMutability": "view",
      "type": "function",
      "signature": "0x0139a221"
    },
    {
      "constant": false,
      "inputs": [
        {
          "name": "owner",
          "type": "address"
        },
        {
          "name": "item",
          "type": "string"
        }
      ],
      "name": "saveMessage",
      "outputs": [
        {
          "name": "",
          "type": "bytes32"
        }
      ],
      "payable": false,
      "stateMutability": "nonpayable",
      "type": "function",
      "signature": "0x7d0f22a1"
    }
  ],
  "bytecode": "0x608060405234801561001057600080fd5b50610b61806100206000396000f3fe608060405260043610610057576000357c0100000000000000000000000000000000000000000000000000000000900463ffffffff1680630139a2211461005c5780637d0f22a114610099578063e45dae5b146100d6575b600080fd5b34801561006857600080fd5b50610083600480360361007e9190810190610889565b610113565b60405161009091906109ea565b60405180910390f35b3480156100a557600080fd5b506100c060048036036100bb9190810190610831565b6102a9565b6040516100cd91906109af565b60405180910390f35b3480156100e257600080fd5b506100fd60048036036100f891908101906107ca565b6104fa565b60405161010a91906109af565b60405180910390f35b61011b610604565b600080838152602001908152602001600020608060405190810160405290816000820160009054906101000a900473ffffffffffffffffffffffffffffffffffffffff1673ffffffffffffffffffffffffffffffffffffffff1673ffffffffffffffffffffffffffffffffffffffff1681526020016001820160009054906101000a900473ffffffffffffffffffffffffffffffffffffffff1673ffffffffffffffffffffffffffffffffffffffff1673ffffffffffffffffffffffffffffffffffffffff168152602001600282018054600181600116156101000203166002900480601f01602080910402602001604051908101604052809291908181526020018280546001816001161561010002031660029004801561027e5780601f106102535761010080835404028352916020019161027e565b820191906000526020600020905b81548152906001019060200180831161026157829003601f168201915b505050505081526020016003820160009054906101000a900460ff1615151515815250509050919050565b6000803390506000610300828787878080601f016020809104026020016040519081016040528093929190818152602001838380828437600081840152601f19601f820116905080830192505050505050506104fa565b90506000151560008083815260200190815260200160002060030160009054906101000a900460ff16151514151561036d576040517f08c379a0000000000000000000000000000000000000000000000000000000008152600401610364906109ca565b60405180910390fd5b610375610604565b6080604051908101604052808473ffffffffffffffffffffffffffffffffffffffff1681526020018873ffffffffffffffffffffffffffffffffffffffff16815260200187878080601f016020809104026020016040519081016040528093929190818152602001838380828437600081840152601f19601f8201169050808301925050505050505081526020016001151581525090508060008084815260200190815260200160002060008201518160000160006101000a81548173ffffffffffffffffffffffffffffffffffffffff021916908373ffffffffffffffffffffffffffffffffffffffff16021790555060208201518160010160006101000a81548173ffffffffffffffffffffffffffffffffffffffff021916908373ffffffffffffffffffffffffffffffffffffffff16021790555060408201518160020190805190602001906104c992919061065b565b5060608201518160030160006101000a81548160ff0219169083151502179055509050508193505050509392505050565b600080848484604051602001808473ffffffffffffffffffffffffffffffffffffffff1673ffffffffffffffffffffffffffffffffffffffff166c010000000000000000000000000281526014018373ffffffffffffffffffffffffffffffffffffffff1673ffffffffffffffffffffffffffffffffffffffff166c0100000000000000000000000002815260140182805190602001908083835b6020831015156105ba5780518252602082019150602081019050602083039250610595565b6001836020036101000a0380198251168184511680821785525050505050509050019350505050604051602081830303815290604052805190602001209050809150509392505050565b608060405190810160405280600073ffffffffffffffffffffffffffffffffffffffff168152602001600073ffffffffffffffffffffffffffffffffffffffff168152602001606081526020016000151581525090565b828054600181600116156101000203166002900490600052602060002090601f016020900481019282601f1061069c57805160ff19168380011785556106ca565b828001600101855582156106ca579182015b828111156106c95782518255916020019190600101906106ae565b5b5090506106d791906106db565b5090565b6106fd91905b808211156106f95760008160009055506001016106e1565b5090565b90565b600061070c8235610ab8565b905092915050565b60006107208235610aca565b905092915050565b60008083601f840112151561073c57600080fd5b8235905067ffffffffffffffff81111561075557600080fd5b60208301915083600182028301111561076d57600080fd5b9250929050565b600082601f830112151561078757600080fd5b813561079a61079582610a39565b610a0c565b915080825260208301602083018583830111156107b657600080fd5b6107c1838284610ad4565b50505092915050565b6000806000606084860312156107df57600080fd5b60006107ed86828701610700565b93505060206107fe86828701610700565b925050604084013567ffffffffffffffff81111561081b57600080fd5b61082786828701610774565b9150509250925092565b60008060006040848603121561084657600080fd5b600061085486828701610700565b935050602084013567ffffffffffffffff81111561087157600080fd5b61087d86828701610728565b92509250509250925092565b60006020828403121561089b57600080fd5b60006108a984828501610714565b91505092915050565b6108bb81610a70565b82525050565b6108ca81610a82565b82525050565b6108d981610a8e565b82525050565b60006108ea82610a65565b8084526108fe816020860160208601610ae3565b61090781610b16565b602085010191505092915050565b6000601682527f4d65737361676520616c726561647920657869737473000000000000000000006020830152604082019050919050565b600060808301600083015161096460008601826108b2565b50602083015161097760208601826108b2565b506040830151848203604086015261098f82826108df565b91505060608301516109a460608601826108c1565b508091505092915050565b60006020820190506109c460008301846108d0565b92915050565b600060208201905081810360008301526109e381610915565b9050919050565b60006020820190508181036000830152610a04818461094c565b905092915050565b6000604051905081810181811067ffffffffffffffff82111715610a2f57600080fd5b8060405250919050565b600067ffffffffffffffff821115610a5057600080fd5b601f19601f8301169050602081019050919050565b600081519050919050565b6000610a7b82610a98565b9050919050565b60008115159050919050565b6000819050919050565b600073ffffffffffffffffffffffffffffffffffffffff82169050919050565b6000610ac382610a98565b9050919050565b6000819050919050565b82818337600083830152505050565b60005b83811015610b01578082015181840152602081019050610ae6565b83811115610b10576000848401525b50505050565b6000601f19601f830116905091905056fea265627a7a72305820dcc5d0b6fb0bc6d0ed123dd5394b6de1b7fe3e2b5442f011e0fbe0e908405bdd6c6578706572696d656e74616cf50037",
  "source": "pragma solidity ^0.5.0;\npragma experimental ABIEncoderV2;\n\ncontract Messages {\n    struct Message {\n        address creator; // application smart contract\n        address owner; // context of message\n        string item; // identifier of message\n        bool exists;\n    }\n\n    mapping (bytes32 => Message) messages;\n\n    function getMessageHash(address creator, address owner, string memory item)\n        public pure returns (bytes32)\n    {\n        bytes32 messageHash = keccak256(abi.encodePacked(creator, owner, item));\n\n        return messageHash;\n    }\n\n    function getMessage(bytes32 messageHash)\n        public view returns (Message memory)\n    {\n        return messages[messageHash];\n    }\n\n    function saveMessage(address owner, string calldata item)\n        external returns (bytes32)\n    {\n        address creator = msg.sender;\n\n        bytes32 messageHash = getMessageHash(creator, owner, item);\n\n        require(messages[messageHash].exists == false, \"Message already exists\");\n\n        Message memory message = Message(creator, owner, item, true);\n\n        messages[messageHash] = message;\n\n        return messageHash;\n    }\n}\n",
  "sourcePath": "/home/sevenflash/apps/diadem-protocol/contracts/Messages.sol",
  "compiler": {
    "name": "solc",
    "version": "0.5.0+commit.1d4f565a.Emscripten.clang"
  },
  "schemaVersion": "3.0.0",
  "updatedAt": "2019-01-09T11:44:50.558Z",
  "devdoc": {
    "methods": {}
  },
  "userdoc": {
    "methods": {}
  }
}